:100000000C94F8050C943F060C943F060C943F06A4
:100010000C943F060C943F060C943F060C943F064C
:100020000C943F060C943F060C9417260C94EA2679
:100030000C948D190C943F060C943F060C943F06CB
:100040000C943F060C943F060C943F060C943F061C
:100050000C943F060C94011A0C943F060C943F0636
:100060000C943F060C943F060C943F060C943F06FC
:100070000C943F060C943F060C943F060C943F06EC
:100080000C943F060C943F060C943F060C943F06DC
:100090000C943F060C943F060C943F060C943F06CC
:1000A0000C943F060C943F060C943F060A00253042
:1000B000313662003A200025303258000A722F6330
:1000C00020303132333435363738394142434445B4
:1000D000460A00290035001E001F002000210022D2
:1000E00000230024002500260027002D002E002BD1
:1000F000022B0014001A000800150017001C00183D
:10010000000C00120013002F0030003900640004BE
:10011000001600070009000A000B000D000E000F7A
:1001200000330034003100E10000001D001B000618
:1001300000190005001100100036003700380000DB
:1001400000E500E000E300E200DA5C2A002C000099
:100150000000002C002800DA5CE600E700E400293B
:1001600000000053005F00600061005400000000C8
:100170000000000000000000000000AA00A900002C
:10018000005C005D005E0055004B004D0052004ACF
:100190000000000000000000000000000059005AAC
:1001A000005B0056004E00500051004F0000000060
:1001B00000000000000000000062006300580057CB
:1001C000000000000000000000000000000000002F
:1001D0000000000000DA5C2A002C00000000002C67
:1001E000002800DA5C00000000000044454255474A
:1001F0003A20656E61626C65642E0A000A00253043
:10020000325820006B6579626F6172645F7265704D
:100210006F72743A20000A0025303258006B6579FD
:10022000626F6172645F7365745F6C65643A20002D
:100230004F6E6573686F743A2074696D656F75747D
:100240000A0064656C5F6B65795F6269743A20636C
:10025000616E27742064656C3A20253032580A009C
:100260006164645F6B65795F6269743A2063616E93
:100270002774206164643A20253032580A00290A24
:10028000002575002F002575005D280025640020DD
:1002900000256400200025640020002564007C0007
:1002A00025303258006D6F7573656B6579205B6220
:1002B000746E7C782079207620685D287265702FB6
:1002C00061636C293A205B006D6B5F776865656CD4
:1002D0005F74696D655F746F5F6D6178203D202587
:1002E000640A006D6B5F776865656C5F6D61785F50
:1002F0007370656564203D2025640A006D6B5F7432
:10030000696D655F746F5F6D6178203D2025640ABB
:10031000006D6B5F6D61785F7370656564203D2073
:1003200025640A006D6B5F696E74657276616C207E
:100330003D2025640A006D6B5F64656C6179203D2A
:100340002025640A006D6B5F776865656C5F746972
:100350006D655F746F5F6D6178203D2025640A00D4
:100360006D6B5F776865656C5F6D61785F737065F5
:100370006564203D2025640A006D6B5F74696D65BE
:100380005F746F5F6D6178203D2025640A006D6B9E
:100390005F6D61785F7370656564203D2025640A38
:1003A000006D6B5F696E74657276616C203D20250F
:1003B000640A006D6B5F64656C6179203D20256483
:1003C0000A000A00257500363A20776865656C5F7B
:1003D00074696D655F746F5F6D61783A20000A0023
:1003E000257500353A20776865656C5F6D61785FCB
:1003F00073706565643A20000A00257500343A2060
:1004000074696D655F746F5F6D61783A20000A00F2
:10041000257500333A206D61785F73706565643AC5
:1004200020000A00257500323A20696E74657276E4
:10043000616C286D73293A20000A00257500313A55
:100440002064656C6179282A31306D73293A200067
:100450000A092D2056616C756573202D0A004D3EEA
:10046000004D25643E20003F00736574206465667E
:1004700061756C740A00433E2000776865726520E0
:1004800064656C74613A20637572736F723D2564A4
:100490002C20776865656C3D25640A536565206886
:1004A0007474703A2F2F656E2E77696B697065646E
:1004B00069612E6F72672F77696B692F4D6F757346
:1004C000655F6B6579730A000A092D204D6F75739E
:1004D000656B6579202D0A4553432F713A09717573
:1004E00069740A313A0964656C6179282A31306D82
:1004F00073290A323A09696E74657276616C286DE7
:1005000073290A333A096D61785F73706565640A0F
:10051000343A0974696D655F746F5F6D61780A358F
:100520003A09776865656C5F6D61785F73706565C2
:10053000640A363A09776865656C5F74696D655F52
:10054000746F5F6D61780A0A703A097072696E742F
:100550002076616C7565730A643A0973657420646A
:10056000656661756C74730A75703A092B310A649B
:100570006F776E3A092D310A706775703A092B3121
:10058000300A7067646F776E3A092D31300A0A734A
:1005900070656564203D2064656C7461202A206D5F
:1005A00061785F7370656564202A202872657065C4
:1005B0006174202F2074696D655F746F5F6D617861
:1005C000290A003F004D3E2000433E20004C256498
:1005D0000A0074696D65725F72656164333228293F
:1005E0003A202530346C580A006B65796D61705F74
:1005F000636F6E6669672E6E6B726F3A2025580ABC
:10060000006B6579626F6172645F69646C653A2042
:1006100025580A006B6579626F6172645F70726F52
:10062000746F636F6C3A2025580A00686F73745FAB
:100630006B6579626F6172645F6C65647328293AD7
:100640002025580A000A092D2053746174757320FF
:100650002D0A004743433A20372E322E3020415690
:10066000522D4C4942433A20322E302E30204156F2
:10067000525F415243483A20617672350A004F502A
:1006800054494F4E533A204C554641204D4F5553F7
:10069000454B45592045585452414B455920434FED
:1006A0004E534F4C4520434F4D4D414E44204E4BF1
:1006B000524F20343039360A004255494C443A20D2
:1006C00022302E352E3137332D352D67626363632B
:1006D00066342D646972747922202831393A3133B5
:1006E0003A3039204A616E202034203230313829A6
:1006F0000A005649443A20307846454544287661F8
:100700006C6B79722E657529205049443A203078F7
:100710003630363028696E74657270686173652989
:10072000205645523A203078303030310A00444566
:1007300053433A20712E6D2E6B2E206B6579626FBC
:10074000617264206669726D7761726520666F728E
:1007500020494E54455250484153450A000A092D3C
:100760002056657273696F6E202D0A000A092D20CC
:10077000436F6E736F6C65202D0A4553432F713A9A
:1007800009717569740A6D3A096D6F7573656B65EA
:10079000790A000A092D204D61676963202D0A44FA
:1007A0003A094465627567204D657373616765201A
:1007B000546F67676C650A583A094D6174726978BD
:1007C000204465627567204D6F646520546F6767CC
:1007D0006C65202D2053686F77206B65797072658A
:1007E0007373657320696E206D6174726978206718
:1007F0007269640A4B3A094B6579626F61726420D1
:10080000446562756720546F67676C65202D2053BF
:10081000686F77206B65797072657373207265708D
:100820006F72740A4D3A094465627567204D6F75A1
:10083000736520546F67676C650A563A095665728E
:1008400073696F6E0A533A095374617475730A437E
:100850003A09416374697661746520436F6E736F02
:100860006C65204D6F64650A46312D4631303A097A
:1008700053776974636820746F204C6179657220C6
:10088000302D392028463130203D204C30290A3087
:100890002D393A0953776974636820746F204C616D
:1008A00079657220302D390A4553433A09537769E7
:1008B00074636820746F204C617965722030202841
:1008C000616C7465726E617465206B657920312985
:1008D0000A47524156453A09537769746368207450
:1008E0006F204C6179657220302028616C746572CC
:1008F0006E617465206B65792032290A5041555329
:10090000453A094A756D7020746F20426F6F746CA0
:100910006F6164657220285265736574290A4E3AC6
:10092000094E4B524F20546F67676C650A003F00B9
:100930004E4B524F3A206F66660A004E4B524F3A6A
:10094000206F6E0A000A6D6F7573653A206F6666D8
:100950000A000A6D6F7573653A206F6E0A000A6BA4
:100960006579626F6172643A206F66660A000A6B8D
:100970006579626F6172643A206F6E0A000A6D6178
:10098000747269783A206F66660A000A6D61747243
:1009900069783A206F6E0A000A64656275673A20CA
:1009A0006F66660A000A64656275673A206F6E0AB0
:1009B000000A0A4A756D70696E6720746F20626F55
:1009C0006F746C6F616465722E2E2E2000433E2082
:1009D000005B735D004B6579626F617264207374B4
:1009E0006172742E0A005B575D005B535D005B52C1
:1009F0005D005B445D005B435D000403300000006C
:100A0000160369006E0074006500720070006800D3
:100A100061007300650000001403760061006C0043
:100A20006B00790072002E00650075000000040361
:100A3000090409028D00050100A0FA090400000163
:100A40000301010009211101000122400007058175
:100A50000308000A09040100010301020009211131
:100A6000010001224D000705820308000A09040263
:100A700000010300000009211101000122360007D6
:100A800005830308000A09040300020300000009AB
:100A90002111010001222200070584032000010723
:100AA00005040320000109040400010300000009FB
:100AB00021110100012239000705850320000112E0
:100AC00001100100000008EDFE606001000102035A
:100AD0000105010906A101050719E029E71500250F
:100AE000019508750181020508190129059505750B
:100AF0000191029501750391010507190029F71568
:100B000000250195F875018102C00631FF0974A125
:100B1000010975150026FF009520750881020976E8
:100B2000150026FF00952075089102C00501098077
:100B3000A10185021601002603001A81002A830004
:100B4000751095018100C0050C0901A101850316EE
:100B50000100269C021A01002A9C02751095018151
:100B600000C005010902A1010901A100050919013F
:100B7000290515002501950575018102950175036B
:100B800081010501093009311581257F950275081C
:100B9000810609381581257F950175088106050CA8
:100BA0000A38021581257F950175088106C0C005A8
:100BB000010906A101050719E029E715002501959E
:100BC000087501810295017508810105081901293F
:100BD00005950575019102950175039101050719A8
:100BE0000029FF150026FF00950675088100C0004A
:100BF00011241FBECFEFDAE0DEBFCDBF04B603FE87
:100C000027C08091470290914802A0914902B0917B
:100C10004A028730904BA740B04BD1F41092470264
:100C2000109248021092490210924A0214BE84B7F0
:100C3000877F84BF0FB6F894A89580916000886183
:100C400080936000109260000FBEE0E0F8E3099529
:100C500011E0A0E0B1E0EEE1F2E502C005900D92F6
:100C6000A633B107D9F722E0A6E3B1E001C01D9297
:100C7000A734B207E1F70E943C230C940D290C9491
:100C80000000FF93EF93E0913601F0913701309728
:100C900009F00995EF91FF910895FC01859180304D
:100CA00011F0EFDFFBCF0895FF27E0E230E247FFCE
:100CB0000CC0419597FF09C0EDE260957095809555
:100CC0009095611D711D811D911D27FF02C0219509
:100CD00030E350E2AA27660F771F881F991FAA1FCB
:100CE000A41710F0A41B63955A95A9F7AA3008F031
:100CF000A95FA05DAF93F39561157105810591051D
:100D000041F7ED3211F4EF93F395F21718F43F9396
:100D1000F395FBCF8F91B5DFFA95E1F70895E9914F
:100D2000F9918591803021F0853219F0AADFF9CF51
:100D3000089520E0E89455915532C1F3503311F4F1
:100D4000689455915A3348F4505390F3220F022E71
:100D5000220F220F200D250FF4CF0EF4219589913B
:100D60009991533619F3533729F1533559F1BC0191
:100D700088279927E8945C3621F4899199916894A1
:100D80005591543639F446EF7EF077FF0DC08FEF62
:100D90009FEF0AC055374AE039F0583540E121F05D
:100DA000523642E009F00895FF93EF937DDFEF9113
:100DB000FF91B7CFFF93EF93FC0181918030B9F39E
:100DC00060DFFBCFFF93EF9368DFF1CFDF93CF932B
:100DD000CDB7DEB72596A3DFCF91DF9108950895B3
:100DE0000C946A09EF92FF921F93CF93DF93CDB7D4
:100DF000DEB72B970FB6F894DEBF0FBECDBF1092B3
:100E0000CC001092CD0088E18093C90086E08093E9
:100E1000CA0083E78093CE00CE0101967C018BE06F
:100E2000D7011D928A95E9F7D7019E01245F3F4FB4
:100E3000C70140E050E0BA011091C80017FD0AC098
:100E40004F5F5F4F6F4F7F4F4131E7E25E076105B4
:100E5000710590F31091CE00FC011193CF01E217C0
:100E6000F30751F78B85803EB1F428E331E0B701F9
:100E7000665F7F4F11968C911197F0E88F9FC001AC
:100E800011244C91842BF901819391939F01129627
:100E90006A177B0779F70E946C0981E02B960FB6E1
:100EA000F894DEBF0FBECDBFDF91CF911F91FF90B1
:100EB000EF900895E82FF0E0EE0FFF1FE85CFE4F83
:100EC000808191810895CF92DF92EF92FF920F93EC
:100ED0001F93CF93DF938CEB90E00E944D0688E345
:100EE000E82E81E0F82ED0E0C0E097EBC92E90E02C
:100EF000D92E0EEA10E0DF93CF93DF92CF920E94BB
:100F0000E60684EB90E00E944D06F70181919191F5
:100F10007F010E9464189F938F931F930F930E94E9
:100F2000E6068CEA90E00E944D0621968DB79EB7AA
:100F300008960FB6F8949EBF0FBE8DBFC530D10581
:100F4000D1F6DF91CF911F910F91FF90EF90DF903D
:100F5000CF9008951092CC001092CD0088E180933C
:100F6000C90086E08093CA000895519A599A80B3C7
:100F7000806380BB81B3806381BB08950E94EF06CC
:100F80000E94AA070C94B5070C94DA070895CF9332
:100F9000C1E08A3D9C4541F4FB01C28181E0CC2344
:100FA00031F00E94B815C0E08C2FCF9108950E94B7
:100FB000D915FACF089581E008950C94C7070E94CF
:100FC00075112FEF84E39CE0215080409040E1F7C1
:100FD00000C0000087E797E790930108809300081E
:100FE0000C94271AFF920F931F93CF93DF938C01DA
:100FF000FC01C081D1818091680181113FC0828153
:101000008823B9F1CE010E94AE16F82E682FCE01CA
:101010000E945416BE018F2D0E947409EC01B80184
:101020000E94DD07882309F45AC0B801CE010E944E
:10103000D60B882309F453C0C531FCE5DF0709F45A
:1010400029C108F5C130ECE5DE0709F44FC008F00E
:1010500063C0C115DC45F1F181E0809347018093C5
:101060004801C801DF91CF911F910F91FF900C941F
:10107000DB07CE010E948316F82ECCCFCE010E9452
:10108000AE16BE01C9CFC53DECE5DE0709F4DFC0F1
:10109000A0F4C43DDC4501F7F8018281882309F4FE
:1010A000BFC0109247010E94BF19909344018093E2
:1010B000430182E00E94A00E12C0C83DECE5DE07AD
:1010C00019F1C93DDC4541F6F8018281882339F0E8
:1010D00082E01FC0F801828181110E94DF0780E059
:1010E000DF91CF911F910F91FF900895F8018281B8
:1010F0008823A9F38091FF0181608093FF018BEE2B
:1011000091E00E944D06EBCFF8018281882339F3EC
:1011100080E00E94DF23E3CFF8018281882309F475
:10112000A0CF0E948B18811102C00E9471180E94EA
:101130009E1890E09093390280933802FE01E350AC
:10114000FC45809138028160E231F105C8F4E55533
:10115000F74F0C94BD28BD08C908CD08D108D508A3
:10116000D908DD08E108E508E908ED08F108F50807
:10117000F908FD0801090509090980913802826012
:1011800080933802809138020E94A2180E94751143
:10119000A6CF809138028460F3CF809138028860B6
:1011A000EFCF809138028061EBCF8091380280626E
:1011B000E7CF809138028064E3CF80913802806865
:1011C000DFCF809138028460EACF809138028E7F31
:1011D000D7CF809138028D7FD3CF809138028B7F1B
:1011E000CFCF80913802877FCBCF809138028F7E1E
:1011F000C7CF809138028F7DC3CF809138028F7B1B
:10120000BFCF809138028F77BBCF809138028B7F20
:10121000EACF90913802892F97FB87F98058B0CF99
:101220008091470181110FC0809143019091440149
:101230000E94D719883C910530F486E20E94E10DA6
:1012400086E20E94780E82E00E94A70E48CFF80145
:101250008281882351F0109248010E94BF19909317
:1012600046018093450180E225CF8091480181119C
:101270000FC080914501909146010E94D719883C8A
:10128000910530F487E20E94E10D87E20E94780E1A
:1012900080E2DACF0E94BA17F8019281992381F097
:1012A0008A7A91E009F490E090934201811106C09E
:1012B00089E20E941E170E940018CECE85E3F9CF66
:1012C00080914201811104C089E20E942517F3CF69
:1012D00085E3FBCF0C94BE070C94C4070C94C6079F
:1012E00090E080E008950895972F70E02EE0929F9F
:1012F000600D711D1124FB0196E4899FE00DF11D25
:101300001124EE0FFF1FED52FF4F85919491089528
:10131000FC01EE0FFF1FE450FE4F8591949108955C
:10132000CF93DF930E9474090E94280BEC01811572
:10133000904408F094C0C11580E3D80708F005C1B7
:10134000C03ED10508F071C0C03CD10508F0ECC02A
:10135000C83AD10580F4C53AD10508F0E9C0C130DA
:10136000D10509F46EC020F0C430D10508F069C081
:10137000D0E0C0E066C0CD3BD105D0F7C83AD1057A
:1013800009F427C1C93AD10509F426C1CA3AD105E1
:1013900009F425C1CB3AD10509F424C1CC3AD105D1
:1013A00009F423C1CB3BD10509F422C1CC3BD105C3
:1013B00009F421C1CD3AD10509F420C1C03BD105C2
:1013C00009F41FC1CE3AD10509F41EC1CF3AD105A7
:1013D00009F41DC1C13BD10509F41CC1C23BD105B3
:1013E00009F41BC1C33BD10509F41AC1C43BD105A3
:1013F00009F419C1C53BD10509F418C1C63BD10593
:1014000009F417C1C73BD10509F416C1C83BD10582
:1014100009F415C1C93BD10509F414C1CA3BD10572
:1014200009F013C1CAE2D6E40CC0CF3FD10509F0E0
:1014300060F4C03FD10508F086C0C83ED10508F071
:1014400097CFCE01DF91CF910895CE019F70C11546
:1014500020E2D207B0F30E948809EC01F2CFC11557
:1014600084E5D807A0F5C11523E5D20708F08EC0A2
:10147000C11581E5D80708F5C11520E5D20708F4A4
:101480006EC0CE0154E0969587955A95E1F783702A
:101490009C2F937021E030E002C0220F331F9A95F9
:1014A000E2F73C68382BC695C695C37080E2C89FAA
:1014B000E0011124C22BD32BC4CFC11582E5D8077C
:1014C00008F050C0DC2FCC27C16FD06ABACFC1154D
:1014D00026E5D20758F49C2F8827C115D54508F476
:1014E00069C0EC01CC27DF71D062ABCFC11588E5B4
:1014F000D80708F43DCFC11529E5D20708F45EC02E
:10150000CE0190568115904208F032CF8D2F8F7109
:101510000E94A80BDD27D06290E0982F88278827AB
:101520009F71C82BD92B8DCFCE01805C910993CFB1
:10153000C53AD10509F447C0C63AD10509F446C0F9
:10154000C3E8D0E47ECFD0657CCFCE019927D3FF0E
:1015500003C0EC01D86C75CFEC01D06C72CFDF709A
:10156000D06A6FCFCE018370992721E030E002C0AE
:10157000220F331F8A95E2F7C695C69580E2C89F71
:10158000E0011124C22BD32BDC685BCFCE0183702A
:10159000992721E030E002C0220F331F8A95E2F73D
:1015A000C695C69580E2C89FE0011124C22BD32BBB
:1015B000DA6847CFEC01C46FD06A43CFDC2FCC2769
:1015C000C06FD06A3ECFC1E8D0E43BCFC2E8D0E4E0
:1015D00038CFC2EED4E435CFC9EED4E432CFCAEE70
:1015E000D4E42FCFC5EBD4E42CCFC6EBD4E429CF81
:1015F000C3EBD4E426CFC4EBD4E423CFC7EBD4E4CD
:1016000020CFCCECD4E41DCFCDECD4E41ACFC3E88A
:10161000D5E417CFCAE8D5E414CFC2E9D5E411CF99
:10162000C4E9D5E40ECFC1E2D6E40BCFC3E2D6E4E1
:1016300008CFC4E2D6E405CFC5E2D6E402CFC6E2C5
:10164000D6E4FFCEC7E2D6E4FCCEC0E0D4E4F9CEC7
:101650008238910549F1B0F48133910509F45CC0F9
:1016600048F48932910509F452C08A32910509F48F
:1016700058C008958533910509F444C08933910514
:1016800099F00895833E910531F138F4803E91053B
:1016900091F0823E9105B1F00895863E910511F1D9
:1016A000873E910541F10895209138022370C9F0D9
:1016B00080EE90E008952091380220FF12C089E367
:1016C00090E008952091380222FF0BC024FF2EC025
:1016D00090E080E008952091380222FD2AC024FD88
:1016E000F7CF08952091380223FFFBCF24FDF0CFE0
:1016F00087EE90E008952091380223FFF0CF86EE28
:1017000090E008952091380225FD16C0089520919B
:10171000380225FD14C008952091380226FD12C01C
:1017200008952091380226FD10C0089583EE90E0C0
:10173000089582EE90E0089589E290E0089585E3AF
:1017400090E008958AE290E0089581E390E0C9CFA7
:10175000CF93C82F0E949E18282F30E03093390273
:101760002093380282FF06C09C2F9871983079F43C
:10177000C77FC46083FF06C09C2F9871983171F4B5
:10178000C77EC46184FDC77E8C2FCF9108959C2FA6
:101790009471943079F7CB7FC860ECCF9C2F947113
:1017A000943181F7CB7EC861EDCF08950F931F93DD
:1017B000CF938C01FB018281811106C0C1E08C2F87
:1017C000CF911F910F910895C0915601C11125C06D
:1017D00006311C4599F70E94D50B81E08093560194
:1017E0000E94BF19909355018093540110924901B2
:1017F00010924B0110924A0110924D0110924C012F
:1018000010924F0110924E0110925101109250010E
:101810001092530110925201D2CF809154019091B5
:1018200055010E94D719883C910540F680914901E5
:10183000E82FF0E0EE0FFF1FE65BFE4F1183008301
:101840008F5F80934901C0E0BACF90935C01809391
:101850005B010895E0915B01F0915C01309721F00C
:101860000190F081E02D099480E00895EF92FF92BD
:101870000F931F93CF93DF938C01E0915B01F09165
:101880005C013097C1F10280F381E02D09958091D0
:10189000FF0182FF30C080FF04C084E092E00E941C
:1018A0004D06D0E0C0E08EEFE82E81E0F82E80916A
:1018B000FF0180FF0EC0F801EC0FFD1F80811F9219
:1018C0008F93FF92EF920E94E6060F900F900F9079
:1018D0000F902196C032D10551F78091FF0180FF12
:1018E0000AC08CEF91E0DF91CF911F910F91FF9093
:1018F000EF900C944D06DF91CF911F910F91FF90C7
:10190000EF900895E0915B01F0915C01309721F038
:101910000480F581E02D09940895209159013091BA
:101920005A012817390771F090935A018093590191
:10193000E0915B01F0915C01309721F00680F78126
:10194000E02D0994089520915701309158012817EE
:10195000390771F09093580180935701E0915B0132
:10196000F0915C01309721F00084F185E02D09941D
:10197000089508950C94B90C81E008950E94B61959
:101980000E94F0060C94381ACF93C82F8091FF0163
:1019900082FF1EC080FF04C08DE192E00E944D06D0
:1019A0008091FF0180FF0CC01F92CF9388E192E0ED
:1019B0009F938F930E94E6060F900F900F900F90C9
:1019C0008091FF0180FF04C086E192E00E944D06F5
:1019D0008C2FCF910C946E095F926F927F928F92B1
:1019E0009F92AF92BF92CF92DF92EF92FF920F93AE
:1019F0001F93CF93DF93CDB7DEB72A970FB6F89436
:101A0000DEBF0FBECDBF0E94F2060E94BC0C882331
:101A100009F47AC09EE5A92E91E0B92E10E000E00D
:101A200088248394912C502E802F0E945A077C0189
:101A3000F501C190D1905F01C816D90609F45EC0C6
:101A40008091FF0181FD0E94630790E080E0CE2439
:101A5000DF243401082E02C0660C771C0A94E2F7DA
:101A6000960126213721232B09F443C08E835F8200
:101A7000E620F72081E0EF2809F480E088870E94C3
:101A8000BF198160782F9A8789874E815F81688529
:101A90008A850E94AB0D000F111FF801E25AFE4F1C
:101AA0008081918168267926718260820E944D1C16
:101AB0000E942A0C90915D018917B9F10E942A0CAD
:101AC00080935D012A960FB6F894DEBF0FBECDBF9E
:101AD000DF91CF911F910F91FF90EF90DF90CF900A
:101AE000BF90AF909F908F907F906F905F900C947D
:101AF000C40C01968E30910509F0ABCF0F5F1F4FDC
:101B00000530110509F08FCF8FEF89838A831B82FF
:101B10000E94BF198160782F9D838C8349815A81EF
:101B20006B818D810E94AB0DC1CF2A960FB6F894C0
:101B3000DEBF0FBECDBFDF91CF911F910F91FF9000
:101B4000EF90DF90CF90BF90AF909F908F907F905D
:101B50006F905F900895CF93DF93CDB7DEB72B974B
:101B60000FB6F894DEBF0FBECDBF4F83588769878D
:101B70007A878B871E821D8285E0FE013796DE0103
:101B8000119601900D928A95E1F70E945F178823C4
:101B900019F082E00E9499170E94321781110E9469
:101BA000F91749815A816B817C818D819E812B96A9
:101BB0000FB6F894DEBF0FBECDBFDF91CF910C946E
:101BC0002714CF93C82F882309F490C08CEF8C0F73
:101BD000813A58F48C2F0E94711F811187C08C2F7D
:101BE0000E941E17CF910C94001880E28C0F883051
:101BF00048F4C77081E001C0880FCA95EAF70E94D7
:101C0000BD17F0CF8BE58C0F833068F481E890E04E
:101C1000C53A31F083E890E0C63A11F482E890E0EA
:101C2000CF910C948D0C88E58C0F853108F05EC047
:101C300082EE90E0C83A09F456C089EE90E0C93AC5
:101C400009F451C08AEE90E0CA3A09F44CC085EB21
:101C500090E0CB3A09F447C086EB90E0CC3A09F427
:101C600042C083EB90E0CB3BF1F184EB90E0CC3BC6
:101C7000D1F187EB90E0CD3AB1F18CEC90E0C03B34
:101C800091F18DEC90E0CE3A71F183E891E0CF3A9A
:101C900051F18AE891E0C13B31F182E991E0C23B28
:101CA00011F184E991E0C33BF1F081E292E0C43BA1
:101CB000D1F083E292E0C53BB1F084E292E0C63B12
:101CC00091F085E292E0C73B71F086E292E0C83B7A
:101CD00051F087E292E0C93B31F090E080E0CA3BEE
:101CE00011F48AE292E0CF910C94A30CCF91089565
:101CF000882329F19CEF980F913A20F40E94251730
:101D00000C94001890E2980F983050F4877091E08E
:101D100001C0990F8A95EAF7892F0E94C317F0CF67
:101D20009BE5980F933020F490E080E00C948D0CAC
:101D3000885A853120F490E080E00C94A30C08953B
:101D4000882321F00E94BD170C9400180895882361
:101D500021F00E94C3170C94001808958F929F924F
:101D6000AF92BF92DF92EF92FF920F931F93CF93A8
:101D7000DF937C01D62FC72FFC01058102950F70E0
:101D8000128111110E94DC170E94B317D82E8823EC
:101D900071F0112331F180E28D0F883010F182E073
:101DA0000E9499170E94B31791E0D82ED926BC2E15
:101DB000B2949FE0B922EB2DF0E0EF51F14F0C947B
:101DC000BD28F30EF30E430F430F850FAD0F8C0F9D
:101DD0008C0FEF0F8C0F8A108A1014118C0F8C0F40
:101DE0001D11D12CE4CF0C2F0F70C07F11F0029584
:101DF000007F1123A9F0002359F080E28D0F883075
:101E000010F0D11109C0802F0E94BD170E94001848
:101E10008D2F0E94E10D14C0802F0E94CE17F6CFA7
:101E20008D2F0E94780E002359F080E28D0F8830AC
:101E300010F0D11124C0802F0E94C3170E940018F7
:101E4000DD2009F401C20E945B1780FDFDC1F7018E
:101E500012820E9455170E94B815C7010E943011C6
:101E60000E945517DF91CF911F910F91FF90EF9036
:101E7000DF90BF90AF909F908F900C94D915802FDA
:101E80000E94D417DBCFFC2FFF70BF2EC07FC03263
:101E900019F0B29480EFB822DD2369F0D13029F136
:101EA000112369F1002359F0F701858180FFB0CF3C
:101EB0008F70858304C0112361F0011104C08B2D44
:101EC0000E94A00EBDCF8B2D0130D1F70E94F017DC
:101ED000B7CF011106C00E94F9178B2D0E94A70EE3
:101EE000AFCF013009F4ACCFF6CF112321F006308B
:101EF00008F0A6CFE4CF053008F0A2CFEECF002344
:101F000061F38D2F0E94780E9BCF8C2F869586953E
:101F1000837079F08130B9F098E0B91609F49BC06C
:101F2000B91608F48DCF86EF8B0D823008F493C07C
:101F300087CF8D2F9C2F9370111102C090E080E00D
:101F40000E948D0C7DCF8D2F9C2F9370111102C09C
:101F500090E080E00E94A30C73CF112309F1D53FDC
:101F600099F0D63FB9F0D43F49F480913202909174
:101F70003302816090933302809332028D2F0E944E
:101F8000D41A0E94C01B5CCF809132029091330220
:101F90008260F0CF80913202909133028460EACF68
:101FA000D53F89F0D63FA9F0D43F49F48091320261
:101FB000909133028E7F90933302809332028D2F63
:101FC0000E943C1BDECF80913202909133028D7FC4
:101FD000F2CF80913202909133028B7FECCF8C2F25
:101FE000837009F04BC0111136C02D2F2295269514
:101FF0002770220F220F6D2F6F70862E912CB12C1F
:10200000A12C022E04C0880C991CAA1CBB1C0A948B
:10201000D2F760E070E0CB01D4FF0FC06FE070E05A
:1020200080E090E004C0660F771F881F991F2A95F3
:10203000D2F76095709580959095C695C695C370BA
:10204000C23071F0A0F4682979298A299B29C1300E
:1020500091F00E946A150E942A0C0E946E09F0CE2F
:10206000682979298A299B290E947C15F4CF0E942E
:102070006A15C501B4010E945815EDCF869511234C
:1020800011F08C2F8170882331F32D2F2295269506
:102090002770220F220F6D2F6F70862E912CB12C7E
:1020A000A12C022E04C0880C991CAA1CBB1C0A94EB
:1020B000D2F760E070E0CB01D4FF0FC06FE070E0BA
:1020C00080E090E004C0660F771F881F991F2A9553
:1020D000D2F76095709580959095C695C695C3701A
:1020E000C23051F080F4682979298A299B29C130AE
:1020F00071F00E942F16AFCF682979298A299B2970
:102100000E944116A8CF0E942F16C501B4010E945B
:102110001D16A1CFE0E2ED0FE53108F066C0F0E05A
:10212000EC56FF4E0C94BD28A910A910A910A910B7
:10213000A910A910A910A910A910A910A910A910D7
:10214000A910A910A910A910BA10C810CF10D61044
:10215000E010DF708C2F8F71112331F00E94B815C1
:102160008D2F0E94A00ED8CE0E94D9158D2F0E94CF
:10217000A70ED2CE112341F0053008F0CDCE8C2F22
:102180008F710E94FC15C8CE063008F0C5CEF7CF7F
:102190008C2F8F71112339F00E94B815BDCE8C2F72
:1021A0008F711123C9F30E94D915B6CE112329F0DE
:1021B0008C2F8F710E94A315AFCE0E949E15ACCEBE
:1021C000112349F0CF718C2F0E94B81563E08C2F3A
:1021D0000E948917A1CE81E00E949917023008F46D
:1021E0009BCE82E00E94991797CE112349F00023DD
:1021F00021F08D2F0E94E10D8FCE8C2F8F71CCCFCF
:10220000002379F0D93349F4FFEF27EE83E0F15052
:1022100020408040E1F700C000008D2F0E94780E22
:102220007BCE8C2F8F71BFCF4C2F4F706D2FC7017E
:102230000E9470090E94D01403CE4C2F4F706D2F56
:10224000C7010E947309FCCDDF91CF911F910F91BF
:10225000FF90EF90DF90BF90AF909F908F90089588
:102260000F931F93CF93DF93EC01988189812B818A
:102270003C81232B39F08F3F19F481E09F3F19F007
:1022800080E001C081E080FD17C0CE010E94F2070E
:10229000882391F0688179818A810E94FA168C01E5
:1022A0000E9453160E945515B801CE01DF91CF91BF
:1022B0001F910F910C94AE0EDF91CF911F910F9152
:1022C00008950E94DC170E94ED170E942C170E94AF
:1022D00000180E94D81C0E94C01B90E080E00E9461
:1022E0008D0C90E080E00C94A30C0E94CB170C9412
:1022F00061110E94F016E92FE295EF70E250EE3086
:10230000E0F4F0E0EA57FE4E0C94BD2894119411CD
:102310009D119D119F119D119D119D11941194115D
:10232000A4119D119D11A411803F19F020F4803E4D
:1023300020F481E00895843FE1F380E00895803E39
:10234000C0F3813FD1F7F5CF93FB882780F908953B
:10235000CF93DF9300D000D01F92CDB7DEB70F90A0
:102360000F900F900F900F90DF91CF910895CF9322
:10237000DF9300D000D000D0CDB7DEB726960FB6E1
:10238000F894DEBF0FBECDBFDF91CF9108951F93AC
:10239000CF93DF93C091690116E080916A018C139D
:1023A00004C0DF91CF911F910895D0E01C9FF001F0
:1023B0001D9FF00D1124E559FE4F4081518162812E
:1023C0007381848195810E94B7112196C770E5CFF2
:1023D00040919B0150919C0160919D0170919E01E3
:1023E00080919F019091A0010C94B7111F93CF93FE
:1023F000DF938091A001807FD1F480919D0188239B
:10240000B1F080916901D0916A01B0919B01C091B6
:102410009C0140919E0150919F01A1E0BF3F09F0B6
:10242000A0E0BA016095709516E0D81304C0DF9162
:10243000CF911F91089521E04115510521F02A2FD8
:10244000CF3F09F020E090E020FD38C0189FF00158
:10245000199FF00D1124E559FE4F21812C132EC038
:1024600020812B132BC02281211128C0238134818C
:102470002417350700F1241B350B283C3105F0F4F7
:102480002091A0012F7020612093A00126E0289FB9
:10249000F001299FF00D1124E059FE4F80818F70CB
:1024A000806180838BE991E00E943011DF91CF91B0
:1024B0001F910C94C711260F371FDFCF019687702D
:1024C000B4CFAF92BF92CF92DF92EF92FF920F9371
:1024D0001F93CF93DF93CDB7DEB761970FB6F89414
:1024E000DEBF0FBECDBF8C0185E0F801DE011D9679
:1024F00001900D928A95E1F7D8014C9111965C916B
:1025000011971296EC9030919B0160919C01809103
:102510009E0190919F0121E0009731F06F3F19F4E7
:1025200021E03F3F09F020E0B22FB170BB2E20FD2B
:1025300080C1F801C380D480A0909D01AA2009F435
:1025400027C1C816D906D0F1D601A81BB90BCD01F9
:10255000FF24F394883C910508F0F12C8091A001B0
:10256000982F907FFF2009F4CAC0911187C0FE2CDC
:10257000651329C0341327C0E11025C08F70806116
:102580008093A0010E94E8118BE991E00E94301134
:102590008091A001F80185838F2D61960FB6F89484
:1025A000DEBF0FBECDBFDF91CF911F910F91FF9086
:1025B000EF90DF90CF90BF90AF9008958095909569
:1025C0008C0D9D1DC5CF81E0CD2831F05F3F19F402
:1025D00081E04F3F09F080E080FD24C081E08E253E
:1025E000F82FF170DF2E80FF3FC0809169012091AC
:1025F0006A0136E0821318C04D875E878D859E85FF
:102600000E94F016292F22952F70223008F12430D5
:1026100030F59F7009F1D80115969C91907FE1F4F7
:10262000FB2CBACF80E0DCCF90E0389FF001399FDF
:10263000F00D1124E559FE4F6181561306C06081EB
:10264000461303C062816E110FC001968770D2CF0E
:102650009F7011F0882321F3805E883008F3C80151
:102660000E943011BD2CDCCFEE2009F495CF809173
:10267000A00181608093A001F12C8ECF651312C060
:10268000341310C0E1100EC0F8018583C8010E9408
:10269000301186E0F801ABE9B1E001900D928A9526
:1026A000E1F741C04D875E878D859E850E94791137
:1026B000882309F4C8C0EE2009F4C5C08091A001A8
:1026C000803270F020919B0130919C0138872F83DC
:1026D0001986DB86CA868C87CE0107960E94301148
:1026E00086E0F801ABE9B1E001900D928A95E1F73F
:1026F0000E94F6110E94E811FF24F3944DCF91112E
:1027000015C07C2DD98AC88A6E2D89890E94A8118E
:102710008BE991E00E94301186E0EBE9F1E0DF0106
:102720001D928A95E9F70E94E81136CF651312C011
:10273000341310C0E1100EC0F8018583C8010E9457
:102740003011EBE9F1E086E0DF011D928A95E9F7AF
:10275000FA2C22CF4D875E878D859E850E94791148
:10276000882309F470C0EE2009F46DC08091A001A7
:10277000803208F4B5CF20919B0130919C013A83BF
:1027800029831B82DD82CC828E83CE010196A6CF67
:10279000C816D90638F1F601E81BF90BCF01F12C68
:1027A000883C910508F03DC0FE2CEE2009F44BC09A
:1027B000651326C0341324C08091A00180FD17C08A
:1027C000982F907FA1F0D80115968C931597903F84
:1027D00009F45CCF982F907F905F8F70892B1596AE
:1027E0008C9354CF809590958C0D9D1DD8CF86E00D
:1027F000F801ABE9B1E001900D928A95E1F7CCCEFA
:102800004D875E878D859E850E947911811168CFE5
:102810008091A00181608093A001C8010E943011C5
:10282000BBCE7C2DD98AC88A6E2D89890E94A811B9
:1028300073CFEE2041F04D875E878D859E850E9487
:10284000791181114DCFC8010E94301155CF1F93CE
:10285000CF93DF93CDB7DEB72C970FB6F894DEBFDA
:102860000FBECDBF4F83588769877A878B879C8738
:10287000CE0107960E946112882309F442C09F810D
:1028800088852A853B85232B39F08F3F19F481E019
:102890009F3F19F080E001C081E080FD08C04F81BA
:1028A000588569857A858B859C850E94B71116E0CD
:1028B0008091690190916A01891709F467C0819F2D
:1028C000C001112485599E4F0E946112882309F48A
:1028D0005DC0E09169011E9FF0011124E559FE4F92
:1028E0004081518162817381848195810E94B711F9
:1028F0008091690190E00196877099278093690122
:10290000D7CF86E0FE013796DE01119601900D9239
:102910008A95E1F79F8188852A853B85232B39F0AD
:102920008F3F19F481E09F3F19F080E001C081E002
:1029300080FDBDCF20916A0130E0C901019687700A
:102940009927409169014817190699F096E0929FDE
:10295000D001939FB00D1124A559BE4FFE013196B1
:1029600001900D929A95E1F780936A010E94C71138
:102970009ECF0E94751110926A011092690186E043
:10298000EBE9F1E0DF011D928A95E9F72C960FB68D
:10299000F894DEBF0FBECDBFDF91CF911F91089598
:1029A000EF92FF920F931F93CF93DF938C01892BAC
:1029B00081F0F12CEE24E394E8012196F801849152
:1029C000843770F4843008F05FC08130B1F0823019
:1029D000A1F1DF91CF911F910F91FF90EF9008959A
:1029E000853709F44CC008F43DC09CE7980F903738
:1029F00080F78F770E94780E49C00E5F1F4FFE014F
:102A0000849190E2980F983060F48770FE2D01C099
:102A1000FF0F8A95EAF78F2F0E94DF170E94001898
:102A200002C00E94E10D8F2D815030F2EFE9FFE0EE
:102A30003197F1F700C00000F7CF0E5F1F4FFE0186
:102A4000849190E2980F983050F48770FE2D01C069
:102A5000FF0F8A95EAF78F2F0E94E517DFCF0E94BC
:102A6000780EE1CF0E5F1F4FFE01C491C150D8F226
:102A70008FE99FE00197F1F700C00000F7CF0E5FEC
:102A80001F4FFE01F490CFCF0E94E10D8E01CBCFFE
:102A900008950E9448156093D2017093D3018093EA
:102AA000D4019093D5010C94611108950C944915AB
:102AB0000F931F930091D2011091D3012091D40163
:102AC0003091D501602B712B822B932B1F910F918D
:102AD0000C9449150F931F930091D2011091D301CB
:102AE0002091D4013091D501602371238223932357
:102AF0001F910F910C9449150F931F930091D201D0
:102B00001091D3012091D4013091D5016027712714
:102B1000822793271F910F910C9449150C94481507
:102B20000C948E150E9490156093CE017093CF0186
:102B30008093D0019093D1010C94611160E070E01A
:102B4000CB010C9492150F931F9341E050E060E08D
:102B500070E08A019B0104C0000F111F221F331F68
:102B60008A95D2F7C901B8011F910F910C94921563
:102B70000F931F9341E050E060E070E004C0440F09
:102B8000551F661F771F8A95D2F78091CE019091CD
:102B9000CF01A091D001B091D1018A019B01082BF6
:102BA000192B2A2B3B2BC901B8011F910F910C94B3
:102BB00092150F931F9341E050E060E070E004C075
:102BC000440F551F661F771F8A95D2F7CB01BA01B4
:102BD00060957095809590950091CE011091CF01F0
:102BE0002091D0013091D10160237123822393235E
:102BF0001F910F910C9492150F931F9341E050E099
:102C000060E070E004C0440F551F661F771F8A956F
:102C1000D2F78091CE019091CF01A091D001B091D7
:102C2000D1018A019B01082719272A273B27C901BF
:102C3000B8011F910F910C9492150F931F9300915F
:102C4000CE011091CF012091D0013091D101602BA4
:102C5000712B822B932B1F910F910C9492150F9334
:102C60001F930091CE011091CF012091D00130919E
:102C7000D10160237123822393231F910F910C9420
:102C800092150F931F930091CE011091CF012091C7
:102C9000D0013091D10160277127822793271F919E
:102CA0000F910C94921508952EE0929F800D11249F
:102CB000982F977071E001C0770F9A95EAF7869583
:102CC0008695869525E0829FC001112450E040E062
:102CD000A62FB0E0FC01E40FF51FEF55FE4F608119
:102CE0009D01042E02C0369527950A94E2F72170C3
:102CF000219526272723262720834F5F5F4F4530C6
:102D0000510541F708952EE0929F800D1124982FD0
:102D1000977086958695869525E0829FA00111245F
:102D200070E060E080E0FA01E60FF71FEF55FE4F1C
:102D3000208130E0092E02C0369527950A94E2F7EB
:102D400021703327062E01C0220F0A94EAF7822B46
:102D50006F5F7F4F6530710531F70895BF92CF9255
:102D6000DF92EF92FF920F931F93CF93DF938C012B
:102D7000C090CE01D090CF01E090D001F090D10171
:102D80008091D2019091D301A091D401B091D5014D
:102D9000C82AD92AEA2AFB2ACFE1D0E0BC2ED701E3
:102DA000C6010C2E04C0B695A795979587950A94F1
:102DB000D2F780FD0EC0219788F7B12C8B2DDF91C3
:102DC000CF911F910F91FF90EF90DF90CF90BF9028
:102DD0000895B8018C2F0E949009019761F3EECFFE
:102DE000CF93DF93EC010E94AE16BE01DF91CF912D
:102DF0000C9490091F93CF93DF93EB01909168019E
:102E0000992331F0CB01DF91CF911F910C94F016F3
:102E1000882379F0CB010E94AE16182F682FCE01BF
:102E20000E945416BE01812FDF91CF911F910C9407
:102E30009009CB010E948316182FF4CF682F809140
:102E40000001909101010C942619682F80910001D6
:102E5000909101010C943119809100019091010130
:102E60000C943C190E94BF192091D9013091DA01CC
:102E70008217930778F00E94BF192091D9013091F1
:102E8000DA01821B930B9C0181E0243F314008F45E
:102E900080E008950E94BF192091D9013091DA0194
:102EA00020953095280F391FEFCF8091D801859557
:102EB0008595859508958091D801877008950E9421
:102EC000BF192091D6013091D70182179307B0F036
:102ED0000E94BF192091D6013091D701821B930B1C
:102EE000843F914018F480E0817008958091D8016A
:102EF00082FB882780F991E08927F6CF0E94BF19CD
:102F00002091D6013091D70120953095820F931FE3
:102F1000E7CF98E0899F90011124622B6093D8013C
:102F20000E94B8150E94BF199093D7018093D601D3
:102F300008959091D801809589238093D801282FF6
:102F4000277081F4282F082E000C330B92171306DC
:102F500049F08595859585950E94D9151092D701E0
:102F60001092D60108959091D801977081E009F4EC
:102F700080E008958091FE0108959091FE01892BD3
:102F80008093FE010895982F90958091FE018923EA
:102F90008093FE0108951092FE0108959091FD0125
:102FA000892B8093FD010895982F90958091FD01C4
:102FB00089238093FD0108951092FD010895909159
:102FC000FC01892B8093FC010895982F90958091A6
:102FD000FC0189238093FC0108951092FC0108955F
:102FE0008093DB010E94BF199093DA018093D9018D
:102FF00008951092DB011092DA011092D901089520
:10300000E0910001F09101018091FE018083E09147
:103010000001F091010180819091FD01892B808355
:10302000E0910001F091010180819091FC01892BD8
:1030300080838091DB01882321F10E94321788234D
:1030400071F08091FF0180FF08C080E392E09F93C0
:103050008F930E94E6060F900F900E94F917E0915F
:103060000001F091010180819091DB01892B808327
:1030700080910001909101010E94A71881110E9486
:10308000F91780910001909101010C94360C9093F6
:103090003701809336010895829590E09C01220FBC
:1030A000331F220F331F2C7C959587959595879517
:1030B0008373282B30E0C901880F991F8A7A3595D0
:1030C00027952575822B0895CF93DF93D92F0E94E2
:1030D0004C18C82F8D2F0E944C189C2FDF91CF9138
:1030E00008956DEE7EEF90E080E00E94F72860E0AA
:1030F00082E090E00E94E52860E083E090E00E949A
:10310000E52860E084E090E00E94E52860E085E04A
:1031100090E00C94E52890E080E00E94DF2821E018
:103120008D3E9E4F09F020E0822F089582E090E0CE
:103130000C94D72883E090E00C94D72884E090E0AA
:103140000C94D728682F84E090E00C94E528FC01CB
:1031500031969C01205E3F4F80E0919191118F5FED
:10316000E217F307D1F708959C01FC0132969FEF17
:1031700080E04191461751F09F3F19F4411101C081
:10318000982F8F5F8E31A9F79F3F09F40895290F7B
:10319000311D97FD3A95F90162830895FC0132963D
:1031A00080962191261303C0DF0111971C92E81726
:1031B000F907B9F70895E62FE695E695E695EF311C
:1031C00071F0E80FF92FF11D677021E030E001C0C8
:1031D000220F6A95EAF78181822B8183089580917D
:1031E000FF0180FF0CC01F926F9380E692E09F93D7
:1031F0008F930E94E6060F900F900F900F90089506
:10320000E62FE695E695E695EF3179F0E80FF92F90
:10321000F11D677021E030E001C0220F6A95EAF7E6
:10322000209581812823218308958091FF0180FFCB
:103230000CC01F926F9382E492E09F938F930E9441
:10324000E6060F900F900F900F90089520911201B5
:10325000222329F02091380227FD0C94DB180C94CE
:10326000B41820911201222329F02091380227FD61
:103270000C9400190C94CE18FC0131968096119292
:10328000E817F907E1F7089580913E02843039F19B
:103290001092000288E190E020E40FB6F894A8951F
:1032A000809360000FBE2093600080E00E946E0952
:1032B00083B7817F846083BF83B7816083BF789445
:1032C000889583B78E7F83BF0FB6F894A8958091B9
:1032D0006000886180936000109260000FBE0895C6
:1032E00008950895CF930E9470190E94F2060E94DB
:1032F0007119C0E08C2F0E945A07892B31F4CF5FDF
:10330000C530C1F780E0CF91089581E0FCCF0E94E5
:1033100075110E942A0C0C946E091F920F920FB621
:103320000F9211248F939F93AF93BF9380910002CC
:10333000811113C08091340290913502A091360220
:10334000B09137024196A11DB11D80933402909334
:103350003502A0933602B0933702BF91AF919F918F
:103360008F910F900FBE0F901F90189582E084BD33
:1033700093E095BD9AEF97BD80936E0008952FB7A7
:10338000F8948091340290913502A0913602B09168
:1033900037022FBF08952FB7F894609134027091CF
:1033A000350280913602909137022FBF0895CF9257
:1033B000DF92EF92FF920F931F932FB7F8944091F3
:1033C00034025091350260913602709137022FBF5E
:1033D0006A017B01EE24FF248C0130E020E0C0165E
:1033E000D106E206F30650F0481B590BCA011F91A3
:1033F0000F91FF90EF90DF90CF90089541505109C9
:10340000F3CF78941F920F920FB60F9211248F93DF
:103410009F93AF93BF938091340290913502A09116
:103420003602B09137020196A11DB11D809334027E
:1034300090933502A0933602B0933702BF91AF91BB
:103440009F918F910F900FBE0F901F90189587E757
:1034500097E7909301088093000888E19AE00FB6FF
:10346000F894A895809360000FBE90936000FFCF02
:103470000E948B18811102C00E9471180E94961838
:103480008093FF010E949E1890E0909339028093F0
:1034900038020E949A18682F70E090E080E00C9447
:1034A00056158091030280FF12C06091050185E0EE
:1034B000689FB0011124759567957595679560387B
:1034C0007105A8F561157105A1F1862F089581FF99
:1034D00009C06091050185E0689FB00111247595D0
:1034E0006795EDCF82FF07C06091050185E0689F79
:1034F000B0011124E4CF209104022223A9F090917D
:1035000004016091050185E0689FB001112429172D
:10351000B0F6269FA001279F500D1124692F70E05F
:10352000CA010E94A928CBCF65E070E0CECF8FE71B
:10353000089581E008958091030280FF0CC060919E
:10354000030170E07595679575956795611571052F
:1035500049F1862F089581FF06C06091030170E054
:1035600075956795F3CF6091030182FD0BC0909133
:1035700004029923A1F06091020180910301961742
:1035800038F0682F70E06038710500F38FE7089518
:10359000899FC001112470E00E94A928F4CF61E046
:1035A00070E0D7CF81E00895803F31F40E94511A36
:1035B0008195809307020895813F19F40E94511A62
:1035C000F8CF823F31F40E94511A81958093060210
:1035D0000895833F19F40E94511AF8CF893F29F4C6
:1035E0000E949B1A8093080208958A3F21F40E944A
:1035F0009B1A8195F7CF8B3F31F40E949B1A8195DE
:103600008093090208958C3F19F40E949B1AF8CF09
:10361000843F31F480910502816080930502089512
:10362000853F21F4809105028260F7CF863F21F427
:10363000809105028460F1CF873F21F480910502DB
:103640008860EBCF883F21F4809105028061E5CF4F
:103650008D3F31F4809103028160809303020895CD
:103660008E3F21F4809103028260F7CF8F3FB9F73C
:10367000809103028460F1CF803FC1F48091070202
:1036800087FD109207028091060281110EC0809181
:10369000070281110AC080910802811106C0809141
:1036A0000902811102C0109204020895813F29F499
:1036B0008091070218162CF3E6CF90910602823F04
:1036C00029F497FFE0CF10920602DDCF833F19F473
:1036D0001916CCF3D8CF893F39F480910802181617
:1036E00094F610920802CFCF8A3F29F48091080205
:1036F00087FFC9CFF6CF8B3F39F48091090287FF4E
:10370000C2CF10920902BFCF8C3F29F480910902E9
:103710001816BCF3B8CF843F31F4809105028E7F38
:1037200080930502B0CF853F21F4809105028D7F03
:10373000F7CF863F21F4809105028B7FF1CF873F41
:1037400021F480910502877FEBCF883F21F480919F
:1037500005028F7EE5CF8D3F31F4809103028E7F8D
:103760008093030290CF8E3F21F4809103028D7FDE
:10377000F7CF8F3F09F087CF809103028B7FF0CF87
:103780008091FF0183FF7EC085EA92E00E944D0692
:10379000809105021F928F9380EA92E09F938F930E
:1037A0000E94E6068EE992E00E944D068091060294
:1037B000282F082E000C330B3F938F938BE992E058
:1037C0009F938F930E94E60689E992E00E944D063E
:1037D00080910702282F082E000C330B3F938F9304
:1037E00086E992E09F938F930E94E60684E992E037
:1037F0000E944D0680910802282F082E000C330BE2
:103800003F938F9381E992E09F938F930E94E60606
:103810008FE892E00E944D0680910902282F082E21
:10382000000C330B3F938F938CE892E09F938F9320
:103830000E94E60689E892E00E944D06809104020B
:103840001F928F9386E892E09F938F930E94E606E3
:1038500084E892E00E944D06809103021F928F93AC
:1038600081E892E09F938F930E94E6068EE792E0B4
:103870000E944D068DB79EB74C960FB6F8949EBF2A
:103880000FBE8DBF85E092E00E94820C0E94BF199E
:10389000909302028093010208951F93CF93DF93C8
:1038A00080910102909102020E94D719AC0190917F
:1038B00004022091060130E0911106C02091070119
:1038C0008AE0289F900111244217530780F08091CD
:1038D000060210910702D0910802C09109028111DD
:1038E0000AC0111161C0D1115FC0C1115DC0DF916B
:1038F000CF911F9108959F3F19F09F5F909304020D
:10390000181624F40E94511A809306028091060230
:1039100087FF05C00E94511A8195809306021116F7
:1039200024F40E94511A809307028091070287FFB6
:1039300005C00E94511A81958093070240910602AA
:10394000442379F030910702332359F025EB4203E9
:10395000A0011124509306023203900111243093E8
:1039600007021D1624F40E949B1A8093080280917E
:10397000080287FF05C00E949B1A81958093080268
:103980001C1624F40E949B1A80930902809109025C
:1039900087FF05C00E949B1A819580930902DF91E1
:1039A000CF911F910C94C01B9F3F09F0A6CFB7CFBA
:1039B00085E0E5E0F2E0DF011D928A95E9F71092DB
:1039C000040210920302089588EC94E00E944D06D0
:1039D0001F9281E08F931F9285E08F938AE794E096
:1039E0009F938F930E94E6060F900F900F900F9079
:1039F0000F900F900895833009F445C028F481306A
:103A000061F0823049F10895853009F46AC008F404
:103A100051C0863009F47CC0089580910701482F79
:103A2000460F5527551F4F3F510594F4680F60937B
:103A30000701809107011F928F9383EB93E09F937F
:103A40008F930E94E6060F900F900F900F900895AD
:103A50008FEF80930701EDCF80910601482F460F2D
:103A60005527551F4F3F510554F4680F60930601C9
:103A7000809106011F928F9381EA93E0E0CF8FEF50
:103A800080930601F5CF80910501482F460F5527F9
:103A9000551F4F3F510554F4680F60930501809105
:103AA00005011F928F938EE893E0C9CF8FEF80932B
:103AB0000501F5CF80910401482F460F5527551F6A
:103AC0004F3F510554F4680F609304018091040145
:103AD0001F928F9389E793E0B2CF8FEF8093040119
:103AE000F5CF80910301482F460F5527551F4F3FB3
:103AF000510554F4680F60930301809103011F92F4
:103B00008F9380E693E09BCF8FEF80930301F5CFF7
:103B100080910201482F460F5527551F4F3F5105F1
:103B200054F4680F60930201809102011F928F93F9
:103B300085E493E084CF8FEF80930201F5CF83304B
:103B4000C9F128F4813061F0823019F1089585308F
:103B500009F452C008F43FC0863009F45EC00895ED
:103B600080910701681790F4861B8093070180916C
:103B700007011F928F9386E393E09F938F930E9498
:103B8000E6060F900F900F900F9008951092070186
:103B9000EECF80910601681750F4861B80930601D2
:103BA000809106011F928F9384E293E0E6CF1092FA
:103BB0000601F6CF80910501681750F4861B8093AB
:103BC0000501809105011F928F9381E193E0D5CF8C
:103BD00010920501F6CF80910401681750F4861BFE
:103BE00080930401809104011F928F938CEF92E0E7
:103BF000C4CF10920401F6CF80910301681750F4EE
:103C0000861B80930301809103011F928F9383EEA3
:103C100092E0B3CF10920301F6CF809102016817B2
:103C200050F4861B80930201809102011F928F93B2
:103C300088EC92E0A2CF10920201F6CFCF93C82F6A
:103C40001F928F938DEC95E09F938F930E94E606D1
:103C500061E070E080E090E004C0660F771F881F8D
:103C6000991FCA95D2F70E9456150F900F900F908A
:103C70000F90CF910C947511873208F052C08E319D
:103C800008F01EC1803109F4ADC0F8F4873009F4A2
:103C90008BC048F4863009F475C08EE299E00E942A
:103CA0004D0680E008958B3009F467C08E30A9F787
:103CB0009091FF01892F8B7F92FF84608093FF0199
:103CC00082FF8DC08EE699E026C0863109F4B1C02E
:103CD00088F4813111F70E94751190913802892F73
:103CE00097FB87F980588093380287FFE6C08BE303
:103CF00099E045C0893109F485C08B3171F6909106
:103D0000FF01892F8D7F91FF82608093FF0181FFEA
:103D100063C08BE899E00E944D068091FF018160AD
:103D200058C0883351F158F4893229F0853319F09D
:103D3000873209F0B2CF80E00E941E1E1CC083347F
:103D4000D1F328F48A3308F4A8CF8953F5CF883407
:103D500009F0A3CF0E94751181EB99E00E944D06F6
:103D60002FEF83ED90E3215080409040E1F700C0B9
:103D700000000E94271A81E0089583E997E00E94DD
:103D80004D06F9CF8091FF01817F8E7F8093FF01E7
:103D90008CE697E00E944D068DEC99E00E944D065E
:103DA00081E080930B0208959091FF01892F8E7F0F
:103DB00090FF81608093FF0180FF03C085EA99E056
:103DC000DECF88E999E00E944D068091FF01897F4E
:103DD000877F8093FF01CFCF8DE799E0D0CF8EE52D
:103DE00099E0CDCF9091FF01892F877F93FF886065
:103DF0008093FF0183FF03C082E599E08CCF85E4C7
:103E000099E0BDCF8DE597E00E944D068EE297E0E8
:103E10000E944D0682EF96E00E944D0689EB96E0E7
:103E20000E944D068EE796E00E944D0683E596E0DF
:103E3000A6CF85E496E00E944D060E942A0C1F92B0
:103E40008F938BE296E09F938F930E94E60680917A
:103E500012011F928F9384E196E09F938F930E94AB
:103E6000E606809130021F928F9381E096E09F9347
:103E70008F930E94E6068091380287FB882780F99D
:103E80001F928F9389EE95E09F938F930E94E60691
:103E90000E94CB199F938F937F936F9382ED95E050
:103EA0009F938F930E94E6068DB79EB746960FB6F6
:103EB000F8949EBF0FBE8DBF5ECF80E399E05FCFC9
:103EC0008D513ACF80E008950C94621F8E518A3054
:103ED00030F4E82FF0E0ED5EFE4F8081089580E041
:103EE0000895CF93C82F80910B028130D1F038F024
:103EF000823009F44DC010920B0280E010C0E091B6
:103F00000001F091010180818232B9F78C2F0E946B
:103F1000621F81111EC08C2F0E943C1E8170CF91A8
:103F20000895E0910001F09101018081823271F3E6
:103F30008C2F0E94641F81111BC0C431D9F060F422
:103F4000CB3071F0C031D1F083EC95E00E944D068A
:103F500013C081E090E0E2CFC93261F0C833A1F72D
:103F60008CE697E00E944D0689EC95E00E944D0694
:103F700081E0D4CF10920B0280E0D0CF0E94E41CED
:103F800085EC95E00E944D0682E080930B02F0CF15
:103F9000C432C8F4CE3108F0BEC0CB30E1F040F4FA
:103FA000C73009F4CCC087E694E00E944D0626C0D5
:103FB000C331C1F1C431B9F780910A02882351F1AC
:103FC00010920A020AC0CB3409F4B7C0C8F4C9324F
:103FD00099F3C83341F70E94E41C80910A028823B8
:103FE00009F4C4C01F928F9381E694E09F938F934E
:103FF0000E94E6060F900F900F900F9081E08FCFF8
:10400000C13509F494C0C23509F48BC0CE3459F6D9
:104010006AE08EC086E794E00E944D0681E08093BE
:104020000B027DCF80E594E00E944D068EE394E084
:104030000E944D06809107011F928F938BE394E0BD
:104040009F938F930E94E60689E394E00E944D06B9
:1040500087E294E00E944D06809106011F928F93A3
:1040600084E294E09F938F930E94E60682E294E0BC
:104070000E944D0683E194E00E944D068091050167
:104080001F928F9380E194E09F938F930E94E606A6
:104090008EE094E00E944D068DEF93E00E944D0665
:1040A000809104011F928F938AEF93E09F938F93E7
:1040B0000E94E60688EF93E00E944D0683EE93E0AF
:1040C0000E944D06809103011F928F9380EE93E032
:1040D0009F938F930E94E6068EED93E00E944D061B
:1040E00087EC93E00E944D06809102011F928F930E
:1040F00084EC93E09F938F930E94E60682EC93E01A
:104100000E944D068DB79EB748960FB6F8949EBF95
:104110000FBE8DBF62CF8C2F0E94661F80930A0254
:104120005CCF61E080910A020E94FB1C56CF61E0E7
:1041300080910A020E949F1D50CF6AE0F3CF8EE16A
:104140008093070182E3809306018AE08093050152
:1041500084E18093040188E08093030188E28093E6
:10416000020189E694E00E944D0637CF8EE594E087
:104170001CCF80912F0208959FB7F89410920E02E1
:104180009FBF90913E02943009F049C02091E90010
:104190002F709091EC0090FD30C090E0922B24E0C5
:1041A0002093E9002091EB0020FF36C02091EE0023
:1041B00027FF32C020910C02222321F02091E80039
:1041C00025FF2AC010920C0226E03091E80035FF4E
:1041D00016C08093F1008091E80085FD29C0809190
:1041E000E80080FFFCCF8091E8008E778093E800A4
:1041F0009F709093E90080E0089590E8CFCF3091D0
:104200003E02343049F43091EB0035FD05C02150B9
:1042100041F481E080930C029F709093E9008FEF4E
:104220000895EFE9FFE03197F1F700C00000CDCF2E
:104230008FB7F89421E020930E028FBFD9CF0F9350
:104240001F93CF93DF9300D01F92CDB7DEB78C01C1
:104250000E94EF23823011F0843019F583E08983C6
:104260001B830A838093E9008FEF9091E8008150CF
:1042700095FD06C095ED9A95F1F700008111F5CFF7
:104280008091E80085FF0DC050E040E063E070E001
:10429000CE0101960E940C248091E8008E778093D5
:1042A000E8000F900F900F90DF91CF911F910F9129
:1042B0000895CF93DF9300D01F92CDB7DEB7209142
:1042C0003E02243031F522E02983805891099B83F6
:1042D0008A8383E08093E9008FEF9091E80081501A
:1042E00095FD06C095ED9A95F1F700008111F5CF87
:1042F0008091E80085FF0DC050E040E063E070E091
:10430000CE0101960E940C248091E8008E77809364
:10431000E8000F900F900F90DF91CF910895CF9309
:10432000DF93EC010E94EF23823011F08430F9F426
:1043300082E08093E9008FEF9091E800815095FD35
:1043400006C095ED9A95F1F700008111F5CF8091A7
:10435000E80085FF0CC050E040E065E070E0CE0171
:104360000E940C248091E8008E778093E800DF9112
:10437000CF910895CF93DF93EC010E94EF23823019
:1043800011F08430F9F4809112018823F1F08091CA
:10439000380287FF1AC085E08093E9008FEF909183
:1043A000E800815095FD06C095E19A95F1F700006F
:1043B0008111F5CF8091E80050E040E060E270E0CC
:1043C00085FD1AC0DF91CF91089581E08093E900C7
:1043D0008FEF9091E800815095FD06C095ED9A957C
:1043E000F1F700008111F5CF8091E80085FFEACF59
:1043F00050E040E068E070E0CE010E940C24809123
:10440000E8008E778093E80080E2FE01AFE0B2E042
:1044100001900D928A95E1F7D5CF86EF99E00E9441
:104420004D0680913D02811109C00E949C250E9489
:10443000F9258091E20084608093E200089582EF84
:1044400099E00E944D0610923D0208958EEE99E08B
:104450000C944D068AEE99E00C944D0686EE99E098
:104460000E944D060C94871920910D022F5F822F18
:1044700062E30E949D28992319F020930D0208956C
:1044800010920D0280910E028823E9F080913E0285
:104490008430B9F49091E9009F708091EC0080FD28
:1044A00013C080E0892B94E09093E9009091EB0099
:1044B00090FF04C09091EE0097FD0AC08F7080932A
:1044C000E90010920E02089580E8ECCF1092F100FE
:1044D0009091E80095FDFACF9091E80090FFEECF23
:1044E0009091E8009E779093E800E8CF42E061EC7D
:1044F00081E00E941A2542E061EC82E00E941A25C8
:1045000042E061EC83E00E941A2542E261EC84E023
:104510000E941A2542E261EC85E00C941A258091F4
:104520004002833009F455C030F4813071F182309B
:1045300009F491C008958A3009F47DC08B3009F4E4
:1045400063C0893009F044C080913F02813209F094
:104550003FC08091430290914402009711F004976C
:10456000B9F58091E800877F8093E8008091E800AA
:1045700082FF2AC08091F10080932F028091E80091
:104580008B778093E8000C944E2580913F02813A0E
:10459000F9F48091E800877F8093E80080914302DE
:1045A00090914402892B61F460E28FE092E070E028
:1045B0000E945B248091E8008B778093E800089547
:1045C00060E090E080E0F3CF80913E028111CECF99
:1045D000089580913F02813AD9F7809143029091EA
:1045E0004402892BA9F78091E800877F8093E80037
:1045F0008091E80080FFFCCF809112018093F10050
:104600008091E8008E77BDCF80913F02813201F723
:104610008091430290914402892BD1F68091E80069
:10462000877F8093E8000E944E258091410280930D
:1046300012010C94751180913F02813249F68091EC
:10464000E800877F8093E8000E944E258091420217
:1046500080933002089580913F02813A09F0B8CFEB
:104660008091E800877F8093E8008091E80080FFD8
:10467000FCCF80913002C2CF84B7877F84BF0FB652
:10468000F894A895809160008861809360001092F2
:1046900060000FBE80E880936100109261000E946C
:1046A000BA0C0E949C250E94F9258091E20084604A
:1046B0008093E2008CEB90E20E94471878940E946D
:1046C00081280E94BE0C88E091E00E94250C85EDB7
:1046D00099E00E944D0680913E02853019F00E94BB
:1046E000EC0CF9CF81ED99E00E944D060E9444192F
:1046F00080913C02882379F30E947219882359F330
:104700000E94F623E8CF292F33272330310579F192
:1047100058F421303105F1F02230310519F190E0E3
:1047200080E030E020E01AC021323105C9F12232A8
:104730003105A9F76530710590F7FB01EE0FFF1FFA
:10474000EE5DFE4F20813181635E7E4FFB018081F3
:1047500090E004C082E190E02FEB3AE0FA0131836F
:10476000208308958DE890E022E33AE0F7CF99277F
:104770008130910579F040F08230910571F0039716
:1047800071F6EAEFF9E002C0EEE2FAE0849190E01F
:104790009F01E4CFE8E1FAE0F9CFE0E0FAE0F6CFFC
:1047A0006530710508F0BBCF660F771FFB01E45D34
:1047B000FE4F2081318189E090E0D0CF0895CF93E2
:1047C000C82F0E94DE23C0933102CF9108958091BB
:1047D0003E02843011F081E0089582E008958091D6
:1047E0003102811102C00C94E723089580E189BD54
:1047F00082E189BD09B400FEFDCF8091D8008F7D94
:104800008093D8008091E00082608093E0008091E6
:10481000E00081FDFCCF0895AF92BF92CF92DF926E
:10482000FF920F931F93CF93DF936C01EB018A01EB
:104830000E946D25F82E811123C00115110539F054
:10484000F80180819181C81BD90BC80ED91EB12CEB
:10485000A12C2097A9F08091E80085FD22C08091CD
:10486000E8008E778093E80001151105A1F0F801AA
:1048700080819181A80EB91EB182A08285E0F82EB8
:104880008F2DDF91CF911F910F91FF90DF90CF90EF
:10489000BF90AF9008950E946D258823D1F2F82E25
:1048A000EFCFF60181916F018093F1002197FFEF27
:1048B000AF1ABF0ACECFFC0180914502909146020B
:1048C00086179707A0F06115710529F49091E8000B
:1048D0009E779093E80090E06115710551F4911175
:1048E00008C08091E80082FF35C080E00895BC01D7
:1048F000F2CF80913E028823C9F18530C9F18091C1
:10490000E80083FD31C08091E80082FDEACF80910C
:10491000E80080FFE1CF2091F3008091F200322F78
:10492000282F6115710519F02830310558F091E0F4
:104930002830310509F090E02091E8002E7720938F
:10494000E800CACF81918093F100615071092F5F17
:104950003F4FE7CF80913E02882341F0853041F000
:104960008091E80083FFBDCF81E0089582E0089543
:1049700083E00895FC0180914502909146028617DC
:104980009707A0F06115710529F48091E8008E77F2
:104990008093E80090E06115710551F4911108C011
:1049A0008091E80082FF36C080E00895BC01F2CF1C
:1049B00080913E028823D1F18530D1F18091E800C9
:1049C00083FD32C08091E80082FDEACF8091E8004B
:1049D00080FFE1CF2091F3008091F200322F282F49
:1049E0006115710519F02830310558F091E0283033
:1049F000310509F090E08091E8008E778093E8001F
:104A0000CACF84918093F1003196615071092F5F74
:104A10003F4FE6CF80913E02882341F0853041F040
:104A20008091E80083FFBCCF81E0089582E0089583
:104A300083E00895982F973028F08F708093E900D5
:104A400081E008959093E900242F762F50E0981785
:104A500031F07091EC002091ED005091F00021FDBB
:104A600002C09F5FE8CF3091EB003E7F3093EB00B8
:104A70003091ED003D7F3093ED003091EB003160DF
:104A80003093EB007093EC002093ED005093F00016
:104A90002091EE0027FDE5CF80E0089580913F0250
:104AA00087FF13C08091E80082FF06C08091E80074
:104AB0008B778093E80004C080913E028111F2CF91
:104AC000089580913E028823D9F38091E80080FF09
:104AD000F8CF8091E8008E77ECCF2091E400309100
:104AE000E50085E69091EC0090FF06C09091E8000B
:104AF00090FF06C080E008959091E80092FDFACF03
:104B000090913E02992391F0953091F09091EB00B5
:104B100095FD10C04091E4005091E5002417350741
:104B200009F381509A01F1F684E0089582E0089536
:104B300083E0089581E008950E940A260E941226CB
:104B4000E0EEF0E0808181608083E8EDF0E080813C
:104B50008F77808319BCA7EDB0E08C918E7F8C930A
:104B600080818F7E808310923D0208950F931F9362
:104B7000CF93DF930E940A260E941226C8EDD0E050
:104B800088818F77888388818068888388818F7DFA
:104B9000888319BC10923E0210923A0210923C0295
:104BA00010923B0200EE10E0F80180818B7F808341
:104BB00088818160888342E060E080E00E941A255D
:104BC000E1EEF0E080818E7F8083E2EEF0E0808194
:104BD00081608083808188608083F80180818E7FFE
:104BE0008083888180618883DF91CF911F910F91AD
:104BF0000895E8EDF0E080818F7E8083E7EDF0E0BE
:104C000080818160808384E082BF81E080933D0267
:104C10000C94B625E8EDF0E080818E7F80831092C1
:104C2000E20008951092DA001092E10008951F92B8
:104C30000F920FB60F9211242F933F934F935F93D0
:104C40006F937F938F939F93AF93BF93EF93FF9354
:104C50008091E10082FF0BC08091E20082FF07C0DB
:104C60008091E1008B7F8093E1000E94342280914B
:104C7000DA0080FF19C08091D80080FF15C08091B4
:104C8000DA008E7F8093DA008091D90080FF94C093
:104C900080E189BD82E189BD09B400FEFDCF81E0DC
:104CA00080933E020E940D228091E10080FF19C096
:104CB0008091E20080FF15C08091E2008E7F80939A
:104CC000E2008091E20080618093E2008091D80050
:104CD00080628093D80019BC85E080933E020E94D8
:104CE0002A228091E10084FF29C08091E20084FFA4
:104CF00025C080E189BD82E189BD09B400FEFDCFF8
:104D00008091D8008F7D8093D8008091E1008F7EC4
:104D10008093E1008091E2008F7E8093E200809199
:104D2000E20081608093E20080913A02882309F4D6
:104D300049C084E080933E020E942E228091E100CF
:104D400083FF29C08091E20083FF25C08091E100AC
:104D5000877F8093E10082E080933E0210923A02C6
:104D60008091E1008E7F8093E1008091E2008E7F50
:104D70008093E2008091E20080618093E20042E053
:104D800060E080E00E941A258091F00088608093A6
:104D9000F0000E942622FF91EF91BF91AF919F9169
:104DA0008F917F916F915F914F913F912F910F90D4
:104DB0000FBE0F901F90189519BC10923E020E94D2
:104DC0001F2272CF8091E30087FD02C081E0B2CF45
:104DD00083E0B0CF1F920F920FB60F9211242F9342
:104DE0003F934F935F936F937F938F939F93AF9373
:104DF000BF93CF93EF93FF93C091E900CF70809161
:104E0000EC001092E9008091F000877F8093F00021
:104E100078940E9426271092E9008091F000886023
:104E20008093F000C093E900FF91EF91CF91BF9183
:104E3000AF919F918F917F916F915F914F913F9132
:104E40002F910F900FBE0F901F9018951F93CF9327
:104E5000DF93CDB7DEB7AA970FB6F894DEBF0FBECB
:104E6000CDBFEFE3F2E08091F100819322E0E734DF
:104E7000F207C9F70E948F228091E80083FF44C0A7
:104E800080913F02909140029A3008F03DC0E92F96
:104E9000F0E0E35BF84D0C94BD2857277D2784276D
:104EA0007D278427DB27FD27842754286128803825
:104EB00089F0823849F5809143028F70873020F560
:104EC0008093E9008091EB0085FB882780F91092A0
:104ED000E90006C080913B0290913C0291118260F2
:104EE0009091E800977F9093E8008093F1001092F2
:104EF000F1008091E8008E772DC0282F2D7F21F4BE
:104F00008823D1F0823059F18091E80083FF0AC0F4
:104F10008091E800877F8093E8008091EB008062B9
:104F20008093EB00AA960FB6F894DEBF0FBECDBFFC
:104F3000DF91CF911F91089580914102813021F737
:104F4000933009F080E080933C021092E900809158
:104F5000E800877F8093E8000E944E25D5CF80919E
:104F600041028111F2CF809143028F702FEF280F01
:104F7000263050F68093E9002091EB0020FFE5CF2A
:104F8000933031F48091EB0080628093EB00DDCFB1
:104F90009091EB0090619093EB0021E030E001C034
:104FA000220F8A95EAF72093EA001092EA00809196
:104FB000EB008860EACF8111A7CF109141021F77E3
:104FC0008091E3008078812B8093E3008091E8005A
:104FD000877F8093E8000E944E258091E80080FF43
:104FE000FCCF8091E30080688093E30083E011119F
:104FF00001C082E080933E0287CF8058823008F063
:1050000083CF80914102909142028C3D23E0920730
:10501000A1F583E08A838AE289834FB7F894DE01A1
:10502000139620E03EE051E2E32FF0E0509357006A
:10503000E49120FF03C0E295EF703F5FEF708E2F89
:1050400090E0EA30C0F0C7968D939D932F5F243196
:1050500059F74FBF8091E800877F8093E8006AE2AC
:1050600070E0CE0101960E945B248091E8008B776E
:105070008093E80049CFC096E7CF609143027091DA
:105080004402AE014F5F5F4F0E948323BC01892B16
:1050900009F43ACF9091E800977F9093E8008981D6
:1050A0009A810E94BA24E1CF803809F02DCF8091F7
:1050B000E800877F8093E80080913A028093F100B6
:1050C00018CF811121CF90914102923008F01CCF6E
:1050D0008091E800877F8093E80090933A020E94D5
:1050E0004E2580913A02882331F084E080933E027D
:1050F0000E94762209CF8091E30087FDF6CF81E000
:10510000F5CFCF9380913E02882399F0C091E900BA
:10511000CF708091EC0080FD0EC080E0C82B109213
:10512000E9008091E80083FD0E942627CF70C0939C
:10513000E900CF91089580E8F1CF991B79E004C090
:10514000991F961708F0961B881F7A95C9F78095C6
:10515000089597FB072E16F4009407D077FD09D029
:105160000E94C32807FC05D03EF4909581959F4F7F
:105170000895709561957F4F0895EE0FFF1F05907C
:10518000F491E02D0994AA1BBB1B51E107C0AA1F93
:10519000BB1FA617B70710F0A61BB70B881F991FD8
:1051A0005A95A9F780959095BC01CD010895F9997C
:1051B000FECF92BD81BDF89A992780B50895A8E1E8
:1051C000B0E042E050E00C94FF28262FF999FECF82
:1051D00092BD81BDF89A019700B4021639F01FBA4A
:1051E00020BD0FB6F894FA9AF99A0FBE0895019669
:1051F000272F0E94E6280C94E528DC01CB01FC0156
:10520000F999FECF06C0F2BDE1BDF89A319600B41F
:0E5210000D9241505040B8F70895F894FFCF2A
:10521E00DC012808140A321EB920BA218F21592127
:10522E001F210101020304050607080900404D363F
:10523E002239AF0B620B2C0B0A0BD10A440A5D0A02
:06524E00760A8F0AAF0A88
:00000001FF
